:060000000A128A11122809
:10000800FE00030EF1000408F2000A08F300831250
:1000180003137F08F4000A128A1131280A128A1180
:10002800152883010A128A1119288B170B17DC303F
:10003800831203138E000B308F00C030F500750853
:100048008B04FE30F50075088C05831603130C1419
:10005800313083120313900030280C1C3B28FE30EB
:10006800F00070088C05DC308E000B308F007408AF
:10007800FF0073088A0072088400710E8300FE0E68
:040088007E0E0900DF
:00000001FF
