:060000000A128A11122809
:10000800FE00030EF6000408F7000A08F800831241
:1000180003137F08F9000A128A1183280A128A1129
:100028001528FA01FB0183010A128A111B28853061
:1000380083160313810063308312031381008B1727
:100048008B168316031305148316031708148312DB
:1000580003139F014130A00020089F048316031357
:100068009F019F17073083120313A1007C30A00063
:10007800A00B3C28A10B3C2800004128F401F50105
:10008800701C4C287208F4070318F50A7308F50762
:1000980001300310F20DF30DFF3E031D4D28013012
:1000A8000310F10CF00CFF3E031D54287008710476
:1000B800031D44287508F1007408F0000800831235
:1000C80003139F149F1866281E08FB00831603134A
:1000D8001E08FA007B08F1007A08F0000A30F200E6
:1000E8000030F3000A128A1142200A128A1171089C
:1000F800FB007008FA0080288128000008000B1D0A
:100108008D28633081000B110A128A1163200A12AC
:100118008A11790883120313FF0078088A00770888
:0C0128008400760E8300FE0E7E0E09009F
:00000001FF
