:060000000A128A11F42F20
:100B8400F2007208831203138600EF30F00070083D
:100B9400860586160330F1009730F000F00BD02D57
:100BA400F10BD02DD52DDF30F00070088312031324
:100BB40086050330F1009730F000F00BDF2DF10BC8
:100BC400DF2DE42D0800700871040319122EF501BD
:100BD400F50AF11BF92D01300310F00DF10DFF3E64
:100BE400031DEE2D0130F4007408F507EB2D710898
:100BF4007302031DFF2D70087202031C072E700878
:100C0400F2027108031CF303F30201300310F10C28
:100C1400F00CFF3E031D082E0130F502031DF92DD3
:100C24007308F1007208F00008003430F400F13069
:100C3400F300F30B1B2EF40B1B2E202E8316031331
:100C4400860183160317890102300A128A11C2250C
:100C54000A128A1102300A128A11C2250A128A1152
:100C640008300A128A11C2250A128A1100300A12A7
:100C74008A11C2250A128A110C300A128A11C2255D
:100C84000A128A1100300A128A11C2250A128A1124
:100C940006300A128A11C2250800FB01FC017608FD
:100CA40077040319862EFD01FD0AF71B652E01301A
:100CB4000310F60DF70DFF3E031D5A2E0130FA0006
:100CC4007A08FD07572E01300310FB0DFC0DFF3E83
:100CD400031D662E77087902031D722E76087802AA
:100CE400031C7B2E7608F8027708031CF903F9022B
:100CF4007B1401300310F70CF60CFF3E031D7C2E11
:100D04000130FD02031D652E7C08F7007B08F60008
:100D14000800F500F6017508031DAA2E7308F400F7
:100D24007408F600F6177608F40004300310F40C87
:100D3400FF3E031D982E74080F390A128A11C2252A
:100D44000A128A1176080F390A128A11C22508007C
:100D54007308F4007408F600C030F4007408F60454
:100D64007608F40004300310F40CFF3E031DB52E86
:100D740074080F390A128A11C2250A128A117608D8
:100D84000F390A128A11C2250800F4007408F00011
:100D940004300310F00CFF3E031DCB2E7008F1004D
:100DA4007108F3000F30F0007008F30574080F3970
:100DB400F0007008F200730883120313860006160D
:100DC40086160330F1009730F000F00BE72EF10B9C
:100DD400E72EEC2EDF30F000700883120313860533
:100DE4000330F1009730F000F00BF62EF10BF62EE5
:100DF400FB2E720883120313860006168616033030
:100E0400F1009730F000F00B052FF10B052F0A2F9E
:100E1400DF30F00070088312031386050330F100FD
:100E24009730F000F00B142FF10B142F192F08003A
:100E3400831603130514831603170814831203136C
:100E44009F014130A60026089F04831603139F01C7
:100E54009F171A3083120313A700F730A600A60BBE
:100E6400312FA70B312F362F0A128A1117260A1297
:100E74008A11F30100300A128A118B260A128A1190
:100E840054300A128A11C7260A128A113A300A12F9
:100E94008A11C7260A128A11073083120313A60087
:100EA4002608F30000300A128A118B260A128A11CE
:100EB40056300A128A11C7260A128A11612F622F2C
:100EC4000000E830F6000330F70083120313210812
:100ED400F9002008F8000A128A114F260A128A1112
:100EE400760883120313A6002608A5006430F600D2
:100EF4000030F7002108F3002008F200E830F00089
:100F04000330F1000A128A11E5250A128A117108C8
:100F1400F9007008F8000A128A114F260A128A1181
:100F2400760883120313A6002608A4000A30F600EC
:100F34000030F7002108F3002008F2006430F000CC
:100F44000030F1000A128A11E5250A128A1171088B
:100F5400F9007008F8000A128A114F260A128A1141
:100F6400760883120313A6002608A3000430A60003
:100F74002608F30000300A128A118B260A128A11FD
:100F8400831203132508303E0A128A11C7260A1257
:100F94008A112C300A128A11C7260A128A11831266
:100FA40003132408303E0A128A11C7260A128A1132
:100FB400831203132308303E0A128A11C7260A1229
:100FC4008A11831203139F149F18E62F1E08A10091
:100FD400831603131E0883120313A000F12FF22FAC
:100FE4000000602F83120313A001A101A201A30139
:0C0FF400A401A50183010A128A111A2F22
:00000001FF
