:060000000A128A11122809
:10000800FE00030EFA000408FB000A08FC00831235
:1000180003137F08FD000A128A115F280A128A1149
:10002800152883120313A001A101A201A301A401B1
:10003800A501A601A70183010A128A119728F501D3
:10004800F6017008710403195A28F701F70AF11B21
:10005800392801300310F00DF10DFF3E031D2E2845
:100068000130F4007408F7072B2801300310F50D50
:10007800F60DFF3E031D3A2871087302031D46283A
:1000880070087202031C4F287008F2027108031CE2
:10009800F303F302751401300310F10CF00CFF3E6A
:1000A800031D50280130F702031D39287608F10096
:1000B8007508F00008000C1D8C280C111608A50006
:1000C8001508A4002209F8002309F900F80A031901
:1000D800F90A24087807A60025080318250A7907CD
:1000E800A7002508A3002408A2002708F100260875
:1000F800F0000130F2000030F3000A128A112320C8
:100108000A128A11710883120313A1007008A00053
:100118007D08FF007C088A007B0884007A0E830033
:10012800FE0E7E0E09008B170B17831603130C1097
:100138000C15043087008312031390101014053037
:0601480097000C15A6282B
:00000001FF
