:060000000A128A11122809
:10000800FE00030EF8000408F9000A08FA0083123B
:1000180003137F08FB000A128A114A2C0A128A115C
:100028001528FC0183120313B901BA01BB01BC01F5
:10003800BD01BE01BF01C00183010A128A112C2C27
:1000480083120313B1000A30A0000030A100310868
:10005800AA00AB012A08A2002B08A3000A128A11E1
:100068005F210A128A11831203132008AC002C089E
:10007800AD000A30A0000030A1003108AA00AB0191
:100088002A08A2002B08A3000A128A1164220A1265
:100098008A11831203132008AC002C08AE000A3022
:1000A800A0000030A1002908AA00AB012A08A2007C
:1000B8002B08A3000A128A115F210A128A118312DF
:1000C80003132008AC002C08AF000A30A000003051
:1000D800A1002908AA00AB012A08A2002B08A30046
:1000E8000A128A1164220A128A1183120313200841
:1000F800AC002C08B000A301A30A00300A128A1130
:10010800B1220A128A11831203132D08303E0A12F3
:100118008A11BA210A128A11023083120313AA0023
:100128002A08A30000300A128A11B1220A128A1181
:10013800831203132E08303E0A128A11BA210A12BA
:100148008A11033083120313AA002A08A30000307F
:100158000A128A11B1220A128A113A300A128A1135
:10016800BA210A128A11043083120313AA002A083A
:10017800A30000300A128A11B1220A128A118312CE
:1001880003132F08303E0A128A11BA210A128A1163
:10019800053083120313AA002A08A30000300A12AC
:1001A8008A11B1220A128A11831203133008303ED1
:1001B8000A128A11BA21080083120313A301A30AA1
:1001C80001300A128A11B1220A128A1141300A1228
:1001D8008A11BA210A128A1183120313A301A30AEE
:1001E80001300A128A11B1220A128A114E300A12FB
:1001F8008A11BA210A128A1183120313871C09294A
:100208000A128A11F5220A128A1183120313071D92
:1002180012290A128A1172230A128A1183120313ED
:100228003F08B4003408A9003E080A128A112420A5
:100238000A128A11053083120313B6002630B5005E
:100248000330B400B40B2629B50B2629B60B262992
:100258002D29831203130814823083120313B50067
:10026800DD30B400B40B3629B50B362983120313DD
:1002780008103B304006031D5A29C0013B303F0699
:10028800031D5529C001BF0117303E06031D502923
:10029800C001BF01BE01F0280130B4003408BE0718
:1002A800F0280130B4003408BF07F0280130B4004A
:1002B8003408C007F02883120313A601A11F6B2975
:1002C800A009A109A00A0319A10AA601A60AA31F49
:1002D8007629A209A309A20A0319A30A0130A400D6
:1002E8002408A606A701A801200821040319AD299E
:1002F800A501A50AA11B8C2901300310A00DA10D91
:10030800FF3E031D81290130A4002408A5077E298A
:1003180001300310A70DA80DFF3E031D8D292108EC
:100328002302031D992920082202031CA229200860
:10033800A2022108031CA303A302271401300310FF
:10034800A10CA00CFF3E031DA3290130A502031D2B
:100358008C2926080319B529A709A809A70A03198A
:10036800A80A2808A1002708A00008008312031380
:10037800A4002408A00004300310A00CFF3E031DB5
:10038800C0292008A1002108A3000F30A0002008E0
:10039800A30524080F39A0002008A200230886001E
:1003A80006168616033083120313A1009730A000A7
:1003B800A00BDC29A10BDC29DF3083120313A0007A
:1003C80020088605033083120313A1009730A0008C
:1003D800A00BEC29A10BEC29831203132208860039
:1003E80006168616033083120313A1009730A00067
:1003F800A00BFC29A10BFC29DF3083120313A000FA
:1004080020088605033083120313A1009730A0004B
:10041800A00B0C2AA10B0C2A0800F2007208F000AD
:1004280004300310F00CFF3E031D152A7008F1007C
:100438007108F4000F30F0007008F40572080F39E5
:10044800F0007008F3007408831203138600061680
:1004580086160330F1009730F000F00B312AF10BCB
:10046800312A362ADF30F00070088312031386051C
:100478000330F1009730F000F00B402AF10B402ACE
:10048800452A73088312031386000616861603305E
:10049800F1009730F000F00B4F2AF10B4F2A542A45
:1004A800DF30F00070088312031386050330F10073
:1004B8009730F000F00B5E2AF10B5E2A632A0800E1
:1004C80083120313A601A31F702AA209A309A20A73
:1004D8000319A30AA601A60AA11F772AA009A10940
:1004E800A00A0319A10A200821040319A42AA501B6
:1004F800A50AA11B8B2A01300310A00DA10DFF3EF8
:10050800031D802A0130A4002408A5077D2A21089C
:100518002302031D912A20082202031C992A20087D
:10052800A2022108031CA303A30201300310A10C9B
:10053800A00CFF3E031D9A2A0130A502031D8B2A39
:1005480026080319AC2AA209A309A20A0319A30AB7
:100558002308A1002208A000080083120313A500A5
:10056800A6012508031DD42A2308A4002408A600F0
:10057800A6172608A40004300310A40CFF3E031D90
:10058800C02A24080F390A128A11E4230A128A1190
:100598008312031326080F390A128A11E42308006C
:1005A800831203132308A4002408A600C030A40063
:1005B8002408A6042608A40004300310A40CFF3E57
:1005C800031DE12A24080F390A128A11E4230A12AA
:1005D8008A118312031326080F390A128A11E42399
:1005E800080083120313A301A30A01300A128A1117
:1005F800B1220A128A1173300A128A11BA210A1218
:100608008A1183120313871C080082308312031394
:10061800B300DD30B200B20B0F2BB30B0F2B8312DC
:1006280003133F08B2003208A9003E080A128A11D3
:1006380024200A128A113B30831203133F06031D3C
:10064800312BBF0117303E06031D2C2BBE01052B95
:100658000130B2003208BE07052B0130B200320863
:10066800BF07052BF500F6017508031D552B730808
:10067800F4007408F600F6177608F4000430031046
:10068800F40CFF3E031D432B74080F390A128A111C
:1006980009240A128A1176080F390A128A110924C4
:1006A80008007308F4007408F600C030F4007408F9
:1006B800F6047608F40004300310F40CFF3E031D22
:1006C800602B74080F390A128A1109240A128A1138
:1006D80076080F390A128A11092408000230831299
:1006E8000313B2003208A30001300A128A11B122A2
:1006F8000A128A1148300A128A11BA210A128A117A
:1007080083120313071D0800823083120313B300FA
:10071800DD30B200B20B8E2BB30B8E2B831203137A
:100728003F08B2003208A9003E080A128A112420A4
:100738000A128A111730831203133E06031DA62BD3
:10074800BE01842B0130B2003208BE07842B34303E
:1007580083120313A400F130A300A30BB12BA40B45
:10076800B12B831603138601831603178901023000
:100778000A128A11E4230A128A1102300A128A1113
:10078800E4230A128A1108300A128A11E4230A1291
:100798008A1100300A128A11E4230A128A110C30D5
:1007A8000A128A11E4230A128A1100300A128A11E5
:1007B800E4230A128A1106300A128A11E423080077
:1007C80083120313A20022088600EF30A00020083D
:1007D80086058616033083120313A1009730A00004
:1007E800A00BF42BA10BF42BDF3083120313A00012
:1007F80020088605033083120313A1009730A00058
:10080800A00B042CA10B042C0800F2007208831220
:1008180003138600EF30F000700886058616033053
:10082800F1009730F000F00B172CF10B172C1C2C53
:10083800DF30F00070088312031386050330F100DF
:100848009730F000F00B262CF10B262C2B2C0800EF
:100858008316031388018701FF3085000330831254
:100868000313B8009730B700B70B382CB80B382CE7
:100878008312031385140A128A11AB230A128A11F0
:100888000A128A11E0200A128A1112280F30F70082
:100898007708F30001300A128A1136230A128A11E6
:1008A80058300A128A1111220A128A117B088312FF
:1008B8000313FF007A088A0079088400780E830001
:0608C800FE0E7E0E090089
:00000001FF
